:020000040800F2
:1000000010600020959A00083D1400084114000873
:1000100045140008491400084D14000800000000B1
:100020000000000000000000000000005114000863
:100030005314000800000000EF9D0008539D0008C5
:10004000B99A0008B99A0008B99A0008B99A000844
:10005000B99A0008B99A0008B99A0008B99A000834
:10006000B99A0008B99A0008B99A0008B99A000824
:10007000B99A0008B99A0008B99A0008B99A000814
:10008000B99A0008B99A0008B99A0008B99A000804
:10009000650A0008B99A0008B99A0008B99A0008D8
:1000A000B99A0008ED0E0008B99A0008B99A00083C
:1000B0009D0E0008830F0008B50F0008B99A0008CC
:1000C000B99A0008B99A0008B99A0008B99A0008C4
:1000D000B99A00083F110008B99A0008E70F000814
:1000E000B99A0008B99A0008B99A0008B99A0008A4
:1000F0001F0F0008B99A0008B99A0008B99A0008B9
:10010000B99A0008B99A0008510F0008B99A000876
:10011000D113000807140008B99A0008B99A00081A
:10012000B99A0008B99A0008B99A0008B99A000863
:10013000B99A0008B99A0008B99A0008B99A000853
:10014000B99A0008B99A0008B99A0008B99A000843
:10015000B99A0008B99A0008B99A0008B99A000833
:10016000B99A0008B99A0008B99A0008B99A000823
:10017000B99A0008B99A0008B99A0008B99A000813
:10018000B99A0008B99A000800F002F800F05CF88B
:100190000AA090E8000C82448344AAF10107DA45E2
:1001A00001D100F051F8AFF2090EBAE80F0013F0D8
:1001B000010F18BFFB1A43F001031847AC330100CD
:1001C000CC3301000A444FF0000C10F8013B13F04F
:1001D000070408BF10F8014B1D1108BF10F8015BA0
:1001E000641E05D010F8016B641E01F8016BF9D193
:1001F00013F0080F1EBF10F8014BAD1C0C1B09D1EA
:100200006D1E58BF01F801CBFAD505E014F8016B5B
:1002100001F8016B6D1EF9D59142D6D370470000ED
:100220000023002400250026103A28BF78C1FBD8FF
:10023000520728BF30C148BF0B6070471FB512F08E
:100240007AFE1FBD10B510BD0FF0DEFE1146FFF7A0
:10025000F5FF00F01DF80FF0FCFE03B4FFF7F2FF0E
:1002600003BC0FF0FDFE0000184800686421B0FBDD
:10027000F1F4204609F07EFD0AF062FB04F038FD3F
:1002800000BF00231A46012118460CF071FCF8E764
:1002900010B586B000BF09F0D1FD0AF04CFA03207A
:1002A00000214FF480720A4BCDE90132CDE90310F1
:1002B0000A200346074A009007480CF0CDF8044690
:1002C0000AF026FB002006B010BD00009C010020B3
:1002D00028020020240600206902000800BF401EFA
:1002E0000028FCD170472DE9FF4104460D46164613
:1002F0001F46DDF82880F949601A8C4270D01ADC5C
:10030000F749A4EB01008C426CD00ADCB4F1804FB9
:100310004ED0F4482044002852D0B0F5806F71D1FF
:1003200056E0B0F5806F65D0B0F5006F6CD0B0F5D9
:10033000406FF4D170E0B0F5923F21D009DCB0F508
:10034000806F7AD0B0F5644F0AD0B0F5684F7CD199
:100350000EE0B0F5943F1BD0B0F5963F75D11FE08D
:10036000012108460DF02EFB19208DF800006DE0EC
:10037000012102200DF026FB2C208DF8000065E005
:10038000012108040DF01EFB18208DF800005DE02F
:10039000012119200DF016FB2C208DF8000055E0EE
:1003A000012188040DF00EFB1A208DF800004DE0AD
:1003B000012108460DF0F5FA1C208DF8000045E0FB
:1003C000012102200DF0EDFA1D208DF800003DE026
:1003D000012104200DF0E5FA1E208DF8000035E023
:1003E00023E0FFE7012108200DF0DBFA32208DF831
:1003F00000002BE0012110200DF0D3FA36208DF8FB
:10040000000023E021E0FFE7012120200DF0C9FAE0
:1004100037208DF8000019E0012140200DF0C1FACD
:100420002B208DF8000011E007E0012180200DF065
:10043000B8FA2C208DF8000008E0012108020DF028
:10044000B0FA2D208DF8000000E000BF00BF02953B
:10045000ADF804600020ADF80C00ADF8060001A96D
:1004600020460DF0C6FC012120460EF08BF901223A
:10047000114620460EF05EF9F8B28DF8010008F042
:10048000FF008DF8020001208DF8030068460DF092
:1004900098FB012120460DF035FDBDE8FF81FEB53A
:1004A00004460D462E468D49601A8C4270D01ADCE7
:1004B0008B49A4EB01008C426CD00ADCB4F1804F74
:1004C0004ED088482044002852D0B0F5806F71D1BA
:1004D00056E0B0F5806F65D0B0F5006F6CD0B0F528
:1004E000406FF4D170E0B0F5923F21D009DCB0F557
:1004F000806F7AD0B0F5644F0AD0B0F5684F7CD1E8
:100500000EE0B0F5943F1BD0B0F5963F75D11FE0DB
:10051000012108460DF056FAA820ADF800006DE064
:10052000012102200DF04EFAA820ADF8000065E090
:10053000012108040DF046FAA820ADF800005DE0A6
:10054000012148040DF03EFAA820ADF8000055E066
:10055000012188040DF036FAA820ADF800004DE026
:10056000012108460DF01DFA5420ADF8000045E0C9
:10057000012102200DF015FA5420ADF800003DE0F5
:10058000012104200DF00DFA5420ADF8000035E0F3
:1005900023E0FFE7012108200DF003FA5420ADF815
:1005A00000002BE0012110200DF0FBF95420ADF8E4
:1005B000000023E021E0FFE7012120200DF0F1F908
:1005C0005420ADF8000019E0012140200DF0E9F9B8
:1005D0005420ADF8000011E007E0012180200DF06B
:1005E000E0F95420ADF8000008E0012108020DF008
:1005F000D8F95420ADF8000000E000BF00BF012092
:1006000001900020ADF80800ADF8020069462046D0
:100610000DF0EFFB012120460DF074FC4FF6FF704A
:10062000811B20460DF02EFC03E020460DF02EFC31
:1006300086B24FF6FF708642F7DB002120460DF0B0
:1006400061FCFEBDFEB504460D4600262E4623493C
:10065000601A8C4275D01ADC2149A4EB01008C424F
:100660007DD00ADCB4F1804F59D01E4820440028C8
:100670005ED0B0F5806F6FD165E0B0F5806F77D058
:10068000B0F5006F7ED0B0F5406FF4D183E0B0F5E7
:10069000923F29D009DCB0F5806F72D0B0F5644F7D
:1006A0000AD0B0F5684F57D10FE0B0F5943F24D091
:1006B000B0F5963F50D129E0012108460DF082F9AE
:1006C00044F2A010ADF8000081E0012102200DF0FD
:1006D00079F944F2A010ADF8000078E0001C004069
:1006E000000C004000FCFFBF012108040DF06AF976
:1006F00044F2A010ADF8000069E0012148040DF0BB
:1007000061F944F2A010ADF8000060E00121880416
:100710000DF058F944F2A010ADF8000057E00121A7
:1007200008460DF03EF942F2D000ADF800004EE070
:10073000012102200DF035F942F2D000ADF80000A1
:1007400045E031E00BE0012104200DF02AF942F2EE
:10075000D000ADF800003AE038E009E012E00121F5
:1007600008200DF01EF942F2D000ADF800002EE096
:10077000012110200DF015F942F2D000ADF8000073
:1007800025E01AE0012120200DF00BF942F2D00003
:10079000ADF800001BE0012140200DF002F942F20B
:1007A000D000ADF8000012E0012180200DF0F9F832
:1007B00042F2D000ADF8000009E0012108020DF07E
:1007C000F0F842F2D000ADF8000000E000BF00BF3A
:1007D000012001900020ADF80800ADF80200694644
:1007E00020460DF006FB4FF6FF70811B20460DF0F2
:1007F00049FB012120460DF085FB03E020460DF06A
:1008000045FB06464FF6FF708642F7D3002120468F
:100810000DF078FBFEBD70B506460C46002500BF06
:1008200004E00A213046FFF70DFF6D1CA542F8D306
:1008300070BD30B58BB004460D46012102200DF08D
:10084000B0F8012102200DF079F8022205217E483E
:100850000CF0B9FE2020099002208DF8280003201A
:100860008DF8290000208DF82A0001208DF82B003A
:1008700009A975480CF01CFEA8B2ADF818000020BC
:10088000ADF81A000794ADF8200006A96F480DF0E6
:10089000B0FA6020ADF804000120ADF80600002099
:1008A000ADF8100001A969480DF071FB08216748F7
:1008B0000DF0CAFC012165480DF006FB01216348DB
:1008C0000DF020FB642161480DF083FC0BB030BDBE
:1008D00030B58BB004460D46012108460DF061F895
:1008E000012102200DF02AF801220A2156480CF0BD
:1008F0006AFE4FF48060099002208DF828000320E2
:100900008DF8290000208DF82A0001208DF82B0099
:1009100009A94D480CF0CCFDA8B2ADF81800002094
:10092000ADF81A000794ADF8200006A94FF08040FA
:100930000DF05FFA6020ADF804000120ADF806006C
:100940000020ADF8100001A94FF080400DF06CFBC5
:100950000821C8060DF085FC012188070DF0B4FAC6
:10096000012188070DF0CEFA642108070DF033FC51
:100970000BB030BD30B58BB004460D4601210420CC
:100980000DF00FF8012102200CF0D8FF0222062101
:100990002D480CF018FE4020099002208DF8280008
:1009A00003208DF8290000208DF82A0001208DF801
:1009B0002B0009A924480CF07BFDA8B2ADF8180063
:1009C0000020ADF81A000794ADF8200006A92048D1
:1009D0000DF00FFA6020ADF804000120ADF806001C
:1009E0000020ADF8100001A919480DF097FA082170
:1009F00017480DF020FC012115480DF065FA012182
:100A000013480DF07FFA0BB030BD10B52DED028B01
:100A1000B0EE408A9FED0F0AC8EE000A9FED0E1A55
:100A20009FED0E0A00EE810AF0EE408A9FED0C0A5F
:100A300028EE800ABCEEC00A10EE101A03480DF032
:100A4000C8FBBDEC028B10BD000402400004004056
:100A5000000800400000C8420AD7233D8FC2753D00
:100A60000000FA4430B587B0002409F09FF905462C
:100A7000FE480078401CFD490870284609F09AF9A4
:100A80000823FB4AFB49FC4802F020F8FB480468B5
:100A9000F848006840F28121884218D0F548006883
:100AA000491C884213D0F3480068491C88420ED084
:100AB000F0480068B0F5217F09D0EE480068891C35
:100AC000884204D0EB480068491C884252D1E8486B
:100AD000007850284ED1E648407858284AD1E4485A
:100AE00000798DF80C00E24840798DF80D00E0485F
:100AF00080798DF80E00DE48C0798DF80F00DD4852
:100B0000006840F28121884203D10121039804F05A
:100B100080FFD848006840F28221884203D1022138
:100B2000039804F076FFD348006840F2832188429E
:100B300003D10321039804F06CFFCE480068B0F5A0
:100B4000217F03D10421039804F063FFC9480068A2
:100B500040F28521884203D10521039804F059FF12
:100B6000C448006840F28621884203D106210398D8
:100B700004F04FFFBF48006840F28121884218D03E
:100B8000BC480068491C884213D0BA480068491C18
:100B900088420ED0B7480068B0F5217F09D0B5482B
:100BA0000068891C884204D0B2480068491C884209
:100BB00052D1AF48007856284ED1AD4840785828D9
:100BC0004AD1AB4800798DF80400A94840798DF8E6
:100BD0000500A74880798DF80600A548C0798DF8F2
:100BE0000700A448006840F28121884203D1012116
:100BF000019804F0FEFE9F48006840F2822188427E
:100C000003D10221019804F0F4FE9A48006840F2F2
:100C10008321884203D10321019804F0EAFE95481C
:100C20000068B0F5217F03D10421019804F0E1FEB2
:100C30009048006840F28521884203D1052101983F
:100C400004F0D7FE8B48006840F28621884203D129
:100C50000621019804F0CDFE8648006840F281210B
:100C6000884218D083480068491C884213D08148C4
:100C70000068491C88420ED07E480068B0F5217F8C
:100C800009D07C480068891C884204D079480068F3
:100C9000491C884264D176480078492860D174485C
:100CA000407851285CD1724800798DF8080070486E
:100CB00040798DF809006E4880798DF80A006C48FB
:100CC000C0798DF80B006B48006840F281218842A2
:100CD00006D1DDED020AB0EE600A012004F07DFECF
:100CE0006448006840F28221884206D1DDED020AA4
:100CF000B0EE600A022004F070FE5E48006840F228
:100D00008321884206D1DDED020AB0EE600A03209D
:100D100004F063FE57480068B0F5217F06D1DDED91
:100D2000020AB0EE600A042004F057FE5148006841
:100D300040F28521884206D1DDED020AB0EE600A5C
:100D4000052004F04AFE4B48006840F286218842A4
:100D500006D1DDED020AB0EE600A062004F03DFE89
:100D600044480068402816D141480078792812D1BB
:100D70003F48407840B28DF818003D48807840B236
:100D80008DF81900BDF9180004F070FE3849C978D3
:100D900048B204F0D2FD37480068402809D13448F1
:100DA00000786E2805D100200690BDF9180004F0E7
:100DB0005DFE3048006866281BD12D4800788DF80C
:100DC00010002B4840788DF81100BDF8101008B2C3
:100DD00004F0A6FD264880788DF814002448C078D9
:100DE0008DF81500BDF8141048B204F0A0FD244899
:100DF000046023480068201A082803DD002004F05E
:100E000001FE02E0002004F0FDFD1E491A480EF02C
:100E10009CFB1C49491C18480EF097FB1949C91C3A
:100E200015480EF092FB184913480EF08EFB174937
:100E300011480EF08AFB16490F480EF086FB144944
:100E400008310D480EF081FB12490B480EF07DFB76
:100E5000114909480EF079FB0F49083106480EF098
:100E600074FB09F092FC07B030BD0000D1010020F6
:100E700018000020200000200064004060000020D6
:100E8000140000200100F0107000F0300300001288
:100E900008000032030000140800003410B508F008
:100EA00085FF0446F9480078401CF8490870204640
:100EB00008F080FF012188070DF053FC012812D1B2
:100EC000F34800680BF011F904F0CBFCF14800681E
:100ED000012804D1F0480068401CEF490860012156
:100EE00088070DF04FFC09F050FC10BD10B508F05C
:100EF0005DFF0446E5480078401CE4490870204640
:100F000008F058FF0121E5480DF02BFC012803D122
:100F10000121E2480DF036FC09F037FC10BD10B598
:100F200008F044FF0446D9480078401CD7490870AF
:100F3000204608F03FFF0121D9480DF012FC01289E
:100F400003D10121D6480DF01DFC09F01EFC10BD97
:100F500010B508F02BFF0446CC480078401CCB4964
:100F60000870204608F026FF0121CE480DF0F9FB5D
:100F7000012803D10121CB480DF004FC09F005FC48
:100F800010BD10B508F012FF0446C0480078401CA0
:100F9000BE490870204608F00DFF0121C2480DF03F
:100FA000E0FB012803D10121BF480DF0EBFB09F064
:100FB000ECFB10BD10B508F0F9FE0446B34800780C
:100FC000401CB2490870204608F0F4FE0121B748E1
:100FD0000DF0C7FB012803D10121B4480DF0D2FB6D
:100FE00009F0D3FB10BD10B508F0E0FE0446A74899
:100FF0000078401CA5490870204608F0DBFE40F24E
:101000002551AB480DF073FE01287DD140F22551EA
:10101000A7480DF0A3FEA6480DF0BDFDA549087038
:10102000A5480078052870D2DFE800F00311263DBE
:101030004B00A04800780D2805D19F480078401C3F
:101040009D49087002E000209B49087073E09948B0
:1010500000780A2808D1002098490870964800783E
:10106000401C9549087006E0924800780D2802D08F
:101070000020914908705EE08E48007890498F4AC0
:10108000127888548D480078401C8C4908700846B6
:1010900000780C2806DB0020087087480078401C88
:1010A0008549087047E0834800780A2805D18248BE
:1010B0000078401C8049087002E000207E490870DA
:1010C00039E07C4800780D282DD17D4890ED000A4C
:1010D0007C4880ED000A7A4890ED010A7A4880ED5C
:1010E000000A774890ED020A784880ED000A7548BA
:1010F000D0ED000AB3EE0E1A70EEC10AB0EE600A2F
:1011000004F053FC704801E016E010E090ED000A96
:1011100004F03BFC6D4890ED000A04F03EFC6C4886
:1011200000680AF0E2FF00206349087003E0002035
:101130006149087000BF00BF09F027FB10BD70B502
:1011400008F034FE054651480078401C4F490870AD
:10115000284608F02FFE40F225515E480DF0C7FDED
:10116000012870D140F225515A480DF0F7FD594839
:101170000DF011FDC4B258480078102870D2DFE895
:1011800000F008142026323E4A5663707CB1BDCE72
:10119000F0EE402C05D150480078401C4E490870B4
:1011A00002E000204C4908700EE1312C05D14A487C
:1011B0000078401C4849087002E000204649087049
:1011C00002E145480078401C43490870FCE0412C8E
:1011D00005D141480078401C3F49087002E00020DA
:1011E0003D490870F0E0432C05D13B480078401C95
:1011F0003949087002E0002037490870E4E04B2CC0
:1012000005D135480078401C3349087002E00020C1
:1012100031490870D8E0202C05D12F480078401CB7
:101220002D49087002E000202B490870CCE0352CD5
:1012300005D129480078401C2749087002E00020A9
:1012400025490870C0E0C0E0362C05D1224800785E
:10125000401C2149087002E000201F490870B3E0DB
:10126000AEE02C2C05D11C480078401C1A490870AF
:1012700002E0002018490870A6E0322C2ED1164852
:101280000078401C144908702BE00000D1010020B8
:101290004C0000205C0000206000002000000140A5
:1012A00000040140000C0040000400400008004021
:1012B00000480040240000202500002026000020D7
:1012C000281E002010000020080000200C00002034
:1012D00050000020001001402700002000205D4940
:1012E000087071E02C2C05D15A480078401C5949EF
:1012F000087002E000205749087065E0302C0ADBD6
:1013000001222146002004F04DFC52480078401C88
:101310005049087002E000204E49087054E0302C1B
:101320000ADB01222146104604F03CFC49480078C3
:10133000401C4849087011E000204649087001220D
:101340002146104604F02EFC01222146022004F022
:1013500029FC00222146032004F024FC34E01BE099
:10136000FFE7302C0ADB01222146022004F01AFCA0
:1013700038480078401C374908700CE00020354997
:10138000087001222146022004F00CFC00222146B4
:10139000032004F007FC17E0302C08DB0022214674
:1013A000032004F0FFFB00202A49087007E000201A
:1013B0002849087000222146032004F0F3FB03E0D3
:1013C00000202449087000BF00BF09F0DEF970BD9D
:1013D00010B508F0EBFC04461F480078401C1E497D
:1013E0000870204608F0E6FC40F225511B480DF03D
:1013F0007EFC012804D140F2255118480DF0AEFCC6
:1014000009F0C3F910BD10B508F0D0FC044612482D
:101410000078401C10490870204608F0CBFC40F2D0
:1014200025510F480DF063FC012804D140F22551ED
:101430000B480DF093FC09F0A8F910BD00BFFEE7C2
:1014400000BFFEE700BFFEE700BFFEE700BFFEE70C
:101450007047704727000020D1010020004C004059
:10146000005000407CB504460D461646C4F3090002
:10147000002839D1A012A0F580108038092833D275
:10148000DFE800F0050A0F14191E23282D000121A2
:1014900008460CF053FA28E0012102200CF04EFA25
:1014A00023E0012104200CF049FA1EE0012108206C
:1014B0000CF044FA19E0012110200CF03FFA14E07E
:1014C000012120200CF03AFA0FE0012140200CF01D
:1014D00035FA0AE0012180200CF030FA05E0012104
:1014E00008020CF02BFA00E000BF00BF00958DF859
:1014F000046000208DF8060002208DF807008DF8AA
:101500000500694620460BF0D3FF7CBD10B50122D3
:1015100004213748FFF7A6FF10BD10B500220121B6
:101520003448FFF79FFF10BD10B500224FF4007143
:101530002F48FFF797FF10BD10B5002202212D485C
:10154000FFF790FF10BD10B500224FF4006128484E
:10155000FFF788FF10BD10B5002201212448FFF7D6
:1015600081FF10BD10B5002202212148FFF77AFF4C
:1015700010BD10B500224FF480711D48FFF772FFB7
:1015800010BD10B5012211021B48FFF76BFF10BD03
:101590001CB5012110200CF0D1F94FF4004000904F
:1015A00000208DF804008DF8060001208DF807005A
:1015B00002208DF8050069460D480BF079FF1CBD2F
:1015C0001CB5012102200CF0B9F94FF40060009025
:1015D00000208DF804008DF8060001208DF807002A
:1015E00002208DF80500694602480BF061FF1CBD22
:1015F00000100240000402400000024070B50446A2
:101600000D46E1B2FE480DF0B0FA00BF4021FC48A3
:101610000DF09EFA0028F9D0204670BD10B586B0B6
:10162000044602940020ADF80C00ADF80E00ADF8B1
:101630001000ADF814000C20ADF8120001210820B4
:101640000CF07CF9012104200CF078F90121080547
:101650000CF0A7F908220C21EA480BF0B4FF08228D
:101660000221E9480BF0AFFF00208DF806000120B1
:101670008DF8070002208DF804008DF80500C002E7
:1016800000906946DF480BF013FF04200090694684
:10169000DD480BF00DFF02A9D9480DF09DF901219D
:1016A000D7480DF021FA06B010BD10B588B0044639
:1016B000012102200CF042F9012110200CF082F9E6
:1016C00007220621D1480BF07EFF07221146CF48A2
:1016D0000BF079FFC020069002208DF81C008DF8D9
:1016E0001D0000208DF81E0001208DF81F0006A9A6
:1016F000C6480BF0DDFE02940020ADF80C00ADF8FA
:101700000E00ADF81000ADF814000C20ADF812007A
:1017100002A9BF480DF060F90121BD480DF0E4F9C0
:101720004021BB480DF00BFA012240F22551B84888
:101730000DF0B8FA25208DF8040000208DF8050082
:1017400001208DF806008DF8070001A80CF039FA89
:1017500008B010BD10B588B0044604940020ADF860
:101760001400ADF81600ADF81800ADF81C000C2000
:10177000ADF81A00012104200CF0E0F801218804E2
:101780000CF00FF907220A219E480BF01CFF0722DC
:101790000B219C480BF017FF00208DF80A00012058
:1017A0008DF80B0002208DF8080040020190022005
:1017B0008DF8090001A993480BF07AFE02208DF8FC
:1017C00008008002019001A98E480BF071FE04A967
:1017D00090480DF001F927208DF80C0001208DF8BC
:1017E0000F0000208DF80D008DF80E0003A80CF0FE
:1017F000E8F9012240F2255186480DF053FA012103
:1018000084480DF071F908B010BD10B5044604E02D
:1018100014F8011B7E480DF0A8F920780028F7D1B4
:1018200010BD7CB50446002C3CDB0A2094FBF0F193
:1018300000FB1140303080B2ADF806000A2094FB66
:10184000F0F00A2190FBF1F201FB1200303080B27F
:10185000ADF804000A2094FBF0F090FBF1F090FB4F
:10186000F1F201FB1200303080B2ADF802000A2024
:1018700094FBF0F090FBF1F090FBF1F090FBF1F2B3
:1018800001FB1200303080B2ADF80000002506E008
:101890003DF815105E480DF068F9681CC5B2042DBE
:1018A000F6DB3FE060420A2190FBF1F201FB1200FF
:1018B000303080B2ADF80600604290FBF1F090FB52
:1018C000F1F201FB1200303080B2ADF8040060424A
:1018D00090FBF1F090FBF1F090FBF1F201FB1200B4
:1018E000303080B2ADF80200604290FBF1F090FB26
:1018F000F1F090FBF1F090FBF1F201FB12003030BF
:1019000080B2ADF800002D2141480DF02EF90025E0
:1019100006E03DF815103E480DF027F9681CC5B2E9
:10192000042DF6DB7CBD10B5044604E014F8011B61
:1019300039480DF01AF920780028F7D110BD7CB590
:101940000446002C3CDB0A2094FBF0F100FB114024
:10195000303080B2ADF806000A2094FBF0F00A2186
:1019600090FBF1F201FB1200303080B2ADF80400C0
:101970000A2094FBF0F090FBF1F090FBF1F201FBF8
:101980001200303080B2ADF802000A2094FBF0F073
:1019900090FBF1F090FBF1F090FBF1F201FB1200F3
:1019A000303080B2ADF80000002506E03DF815109B
:1019B00019480DF0DAF8681CC5B2042DF6DB4EE0CC
:1019C00060420A2190FBF1F201FB1200303080B23C
:1019D000ADF80600604290FBF1F090FBF1F201FBE4
:1019E0001200303080B2ADF80400604290FBF1F09C
:1019F00090FBF1F090FBF1F201FB120030300DE0B2
:101A00000050004000080240000C02400004024068
:101A100000100140004800400044004080B2ADF892
:101A20000200604290FBF1F090FBF1F090FBF1F0CE
:101A300090FBF1F201FB1200303080B2ADF80000F3
:101A40002D21F9480DF091F8002506E03DF815101C
:101A5000F5480DF08AF8681CC5B2042DF6DB7CBD94
:101A600010B5044604E014F8011BF0480DF07DF8B1
:101A700020780028F7D110BD3EB50446002C60DB6D
:101A80000A2094FBF0F100FB1140303080B2ADF839
:101A90000A000A2094FBF0F00A2190FBF1F201FB0E
:101AA0001200303080B2ADF808000A2094FBF0F04C
:101AB00090FBF1F090FBF1F201FB1200303080B2AC
:101AC000ADF806000A2094FBF0F090FBF1F090FBDB
:101AD000F1F090FBF1F201FB1200303080B2ADF872
:101AE00004000A2094FBF0F090FBF1F090FBF1F081
:101AF00090FBF1F090FBF1F201FB1200303080B26C
:101B0000ADF802000A2094FBF0F090FBF1F090FB9E
:101B1000F1F090FBF1F090FBF1F090FBF1F201FBA2
:101B20001200303080B2ADF80000002506E03DF82C
:101B30001510BE480DF019F8681CC5B2052DF6DB6E
:101B400063E060420A2190FBF1F201FB12003030A9
:101B500080B2ADF80A00604290FBF1F090FBF1F228
:101B600001FB1200303080B2ADF80800604290FBFB
:101B7000F1F090FBF1F090FBF1F201FB120030303C
:101B800080B2ADF80600604290FBF1F090FBF1F0FE
:101B900090FBF1F090FBF1F201FB1200303080B2CB
:101BA000ADF80400604290FBF1F090FBF1F090FB87
:101BB000F1F090FBF1F090FBF1F201FB12003030FC
:101BC00080B2ADF80200604290FBF1F090FBF1F0C2
:101BD00090FBF1F090FBF1F090FBF1F090FBF1F253
:101BE00001FB1200303080B2ADF800002D218F488B
:101BF0000CF0BBFF002506E03DF815108B480CF0FB
:101C0000B4FF681CC5B2052DF6DB3EBD30B52DED29
:101C1000068B83B0B0EE408AF0EE608A9FED840BB5
:101C200053EC102B51EC180B10F01CFF4FD29FED12
:101C3000821B9FED830B0EF0FFFDB0EE409AF0EE9D
:101C4000609A53EC182B51EC190B10F00DFE41EC7F
:101C5000180B002427E051EC180B10F06FFD05461F
:101C6000204610F0B1FD41EC1A0BB0EE4A1AF0EE2E
:101C70006A1A9FED730B0EF0DFFDB0EE409AF0EEA6
:101C8000609A51EC190B10F059FD95FBF0F00A2108
:101C900090FBF1F201FB12003030C4F1050101AA02
:101CA0005054601CC4B2062CD5DB00240CE001A803
:101CB000015D5E480CF059FF022C03D12E215B48D8
:101CC0000CF053FF601CC4B2062CF0DB56E09FED15
:101CD0005A1B9FED5B0B0EF0AFFDB0EE409AF0EE9D
:101CE000609A51EC180B10F0D6FA41EC1A0B53EC39
:101CF000192B10F0B9FD41EC180B002427E051EC32
:101D0000180B10F01BFD0546204610F05DFD41EC60
:101D10001A0BB0EE4A1AF0EE6A1A9FED490B0EF05C
:101D20008BFDB0EE409AF0EE609A51EC190B10F07A
:101D300005FD95FBF0F00A2190FBF1F201FB12008A
:101D40003030C4F1050101AA5054601CC4B2062C05
:101D5000D5DB2D2135480CF008FF00240CE001A84C
:101D6000015D32480CF001FF022C03D12E212F48D7
:101D70000CF0FBFE601CC4B2062CF0DB03B0BDEC23
:101D8000068B30BD30B52DED068B83B0B0EE408AAA
:101D9000F0EE608A9FED260B53EC102B51EC180BE4
:101DA00010F060FE60D29FED241B9FED250B0EF01E
:101DB00043FDB0EE409AF0EE609A53EC182B51ECD4
:101DC000190B10F051FD41EC180B002427E051ECE9
:101DD000180B10F0B3FC0546204610F0F5FC41EC62
:101DE0001A0BB0EE4A1AF0EE6A1A9FED150B0EF0C0
:101DF00023FDB0EE409AF0EE609A51EC190B10F012
:101E00009DFC95FBF0F00A2190FBF1F201FB120022
:101E10003030C4F1050101AA5054601CC4B2062C34
:101E2000D5DB00241DE000000044004000480040D5
:101E3000000000000000000000000000000008405A
:101E4000000000000000244001A8015D91480CF052
:101E50008CFE022C03D12E218E480CF086FE601CD5
:101E6000C4B2062CF0DB56E01FED0D1B1FED0C0B72
:101E70000EF0E2FCB0EE409AF0EE609A51EC180BD6
:101E800010F009FA41EC1A0B53EC192B10F0ECFC92
:101E900041EC180B002427E051EC180B10F04EFC1D
:101EA0000546204610F090FC41EC1A0BB0EE4A1AA1
:101EB000F0EE6A1A1FED1E0B0EF0BEFCB0EE409A5B
:101EC000F0EE609A51EC190B10F038FC95FBF0F035
:101ED0000A2190FBF1F201FB12003030C4F1050140
:101EE00001AA5054601CC4B2062CD5DB2D216948D0
:101EF0000CF03BFE00240CE001A8015D65480CF0ED
:101F000034FE022C03D12E2162480CF02EFE601C00
:101F1000C4B2062CF0DB03B0BDEC068B30BD5E48CE
:101F2000008870475C4908807047F0B503460D464D
:101F30001646002729460A2E03D00020087028469E
:101F4000F0BD33B9302001F8010B0020087028469D
:101F5000F6E7002B03DA2D2001F8010B5B4242F279
:101F600010720DE093FBF2F404B937B104F13000C4
:101F700001F8010B04FB123301270A2092FBF0F257
:101F8000002AEFDC002008702846D9E70FB470B5AE
:101F900086B006460CA8019073E00B9800785C2888
:101FA0001CD10B98401C0B9000786E2809D0722829
:101FB0000FD10D2130460CF0D8FD0B98401C0B9032
:101FC0000BE00A2130460CF0D0FD0B98401C0B9022
:101FD00003E00B98401C0B9000BF4BE00B9800787F
:101FE000252840D10B98401C0B900078642818D00D
:101FF000732833D1019810C801900BE02178304646
:102000000CF0B3FD00BF402130460CF0A1FD0028CC
:10201000F9D0641C20780028F0D10B98401C0B905C
:1020200020E0019820C801900A2202A92846FFF763
:102030007CFF02AC0BE0217830460CF096FD00BF2F
:10204000402130460CF084FD0028F9D0641C207833
:102050000028F0D10B98401C0B9003E00B98401C1B
:102060000B9000BF06E00B9810F8011B0B90304658
:102070000CF07BFD00BF402130460CF069FD0028CC
:10208000F9D00B980078002887D106B070BC5DF8B5
:1020900014FB000000100140280000201CB5FD4981
:1020A00003C9CDE9000108236A460021FA4800F07F
:1020B000E1FC1CBD30B587B00446F649083103C9C0
:1020C000CDE9050104F540700090019000208DF8E5
:1020D00008008DF8090008208DF80A000598C0B2A4
:1020E0008DF80B000598010A8DF80C100598010C6D
:1020F0008DF80D100598000E8DF80E000698C1B2EF
:102100008DF80F100698010A8DF810100698010C32
:102110008DF811100698000E8DF812006946DE4801
:102120000CF0BEFF054600BF2946DB480DF050F815
:102130000128F9D107B030BD70B588B0064600243B
:10214000D449103103C9CDE9060106F5407001906C
:10215000029000208DF80C008DF80D0008208DF8FD
:102160000E0000BF3FE006A810F834008DF80F0005
:1021700006A830F83400010A8DF8101006A850F8AF
:102180003400010C8DF8111006A850F83400000E30
:102190008DF8120006A800EBC40001798DF8131029
:1021A00006A800EBC4008088010A8DF8141006A868
:1021B00000EBC4004068010C8DF8151006A800EB78
:1021C000C4004068000E8DF8160001A9B2480CF05A
:1021D00067FF054600BF2946AF480CF0F9FF01280C
:1021E000F9D1601CC4B2012CBDDB08B070BD2DE973
:1021F000F04194B005460E46174600243822A54902
:10220000183106A80DF0B8FE05F540700190029057
:1022100000208DF80C008DF80D0008208DF80E00C0
:102220000D960F979D4911914942139100BF3FE0D0
:1022300006A810F834008DF80F0006A830F8340016
:10224000010A8DF8101006A850F83400010C8DF822
:10225000111006A850F83400000E8DF8120006A8E0
:1022600000EBC40001798DF8131006A800EBC40040
:102270008088010A8DF8141006A800EBC40040689D
:10228000010C8DF8151006A800EBC4004068000E84
:102290008DF8160001A980480CF002FF804600BFAF
:1022A00041467D480CF094FF0128F9D1601CC4B26E
:1022B000072CBDDB14B0BDE8F081F0B589B0054650
:1022C0000F460024734B50330FCB05AE0FC605F5F8
:1022D00040700090019000208DF808008DF80900F2
:1022E00008208DF80A00069700BF3FE005A810F807
:1022F00034008DF80B0005A830F83400010A8DF881
:102300000C1005A850F83400010C8DF80D1005A82C
:1023100050F83400000E8DF80E0005A800EBC40044
:1023200001798DF80F1005A800EBC4008088010A20
:102330008DF8101005A800EBC4004068010C8DF862
:10234000111005A800EBC4004068000E8DF81200C3
:10235000694651480CF0A4FE064600BF31464E487F
:102360000CF036FF0128F9D1601CC4B2022CBDDB91
:1023700009B0F0BD2DE9F043A5B080460D461646E4
:102380001F46002480224349603105A80DF0F4FD6A
:1023900008F540700090019000208DF808008DF83D
:1023A000090008208DF80A001095129514951696CC
:1023B00018961A961C971E9705A8C76637490A39BA
:1023C00041674942C1670A9149420C9100BF3FE011
:1023D00005A810F834008DF80B0005A830F834007B
:1023E000010A8DF80C1005A850F83400010C8DF886
:1023F0000D1005A850F83400000E8DF80E0005A849
:1024000000EBC40001798DF80F1005A800EBC400A3
:102410008088010A8DF8101005A800EBC400406800
:10242000010C8DF8111005A800EBC4004068000EE7
:102430008DF81200694618480CF032FE814600BF44
:10244000494615480CF0C4FE0128F9D1601CC4B2FD
:10245000102CBDDB25B0BDE8F0832DE9F0418AB03A
:1024600005460F46904600240A4BE0330FCB06AEDC
:102470000FC605F540700190029000208DF80C0009
:102480008DF80D0008208DF80E004FB944F2501061
:10249000069008E03C3001080064004000CA9A3B06
:1024A00045F250200690CDF81C8000243FE006A89D
:1024B00010F834008DF80F0006A830F83400010A37
:1024C0008DF8101006A850F83400010C8DF811108A
:1024D00006A850F83400000E8DF8120006A800EB94
:1024E000C40001798DF8131006A800EBC4008088A1
:1024F000010A8DF8141006A800EBC4004068010C16
:102500008DF8151006A800EBC4004068000E8DF889
:10251000160001A96B480CF0C3FD064600BF31460A
:1025200068480CF055FE0128F9D1601CC4B2022C99
:10253000BDDB0AB0BDE8F08130B587B00446624922
:1025400003C9CDE9050104F5407000900190002019
:102550008DF808008DF8090008208DF80A0005980C
:10256000C0B28DF80B000598010A8DF80C10059883
:10257000010C8DF80D100598000E8DF80E000698D0
:10258000C1B28DF80F100698010A8DF81010069848
:10259000010C8DF811100698000E8DF81200694696
:1025A00048480CF07DFD054600BF294645480CF023
:1025B0000FFE0128F9D107B030BD30B587B0044611
:1025C0004149083103C9CDE9050104F54070009087
:1025D000019000208DF808008DF8090008208DF882
:1025E0000A000598C0B28DF80B000598010A8DF815
:1025F0000C100598010C8DF80D100598000E8DF843
:102600000E000698C1B28DF80F100698010A8DF8D9
:1026100010100698010C8DF811100698000E8DF818
:102620001200694627480CF03BFD054600BF2946CD
:1026300024480CF0CDFD0128F9D107B030BD30B5EC
:1026400087B004462049103103C9CDE9050104F5DE
:1026500040700090019000208DF808008DF809006E
:1026600008208DF80A000598C0B28DF80B00059877
:10267000010A8DF80C100598010C8DF80D100598C5
:10268000000E8DF80E000698C1B28DF80F10069856
:10269000010A8DF810100698010C8DF8111006989B
:1026A000000E8DF81200694606480CF0F9FC05464C
:1026B00000BF294603480CF08BFD0128F9D107B073
:1026C00030BD0000006400402C3101082DE9F04FBE
:1026D0008BB006460F4614461D46DDF850804FF07D
:1026E0000009CA46CB46B5F5807F43D012DC102DD9
:1026F00034D008DC012D25D0022D26D0042D27D082
:10270000082D4FD127E0202D2BD0402D2CD0802D0F
:1027100048D12CE0B5F5805F38D009DCB5F5007FF5
:102720002BD0B5F5806F2BD0B5F5006F3AD12AE0EC
:10273000B5F5005F2DD0B5F5804F2DD0B5F5004F24
:1027400030D12CE04FF000092DE04FF001092AE0D4
:102750004FF0020927E04FF0030924E04FF004098D
:1027600021E04FF005091EE04FF006091BE04FF095
:10277000070918E04FF0080915E04FF0090912E0C9
:102780004FF00A090FE04FF00B090CE04FF00C0975
:1027900009E04FF00D0906E04FF00E0903E04FF09D
:1027A0000F0900E000BF00BFB8F5807F4BD01ADCF6
:1027B000B8F1100F3BD00CDCB8F1010F2BD0B8F101
:1027C000020F2BD0B8F1040F2BD0B8F1080F52D163
:1027D0002AE0B8F1200F2DD0B8F1400F2DD0B8F17C
:1027E000800F48D12CE0B8F5805F38D009DCB8F50F
:1027F000007F2BD0B8F5806F2BD0B8F5006F3AD1A1
:102800002AE0B8F5005F2DD0B8F5804F2DD0B8F58F
:10281000004F30D12CE04FF0000A2DE04FF0010ABC
:102820002AE04FF0020A27E04FF0030A24E04FF0BD
:10283000040A21E04FF0050A1EE04FF0060A1BE0F3
:102840004FF0070A18E04FF0080A15E04FF0090AA8
:1028500012E04FF00A0A0FE04FF00B0A0CE04FF0C5
:102860000C0A09E04FF00D0A06E04FF00E0A03E0F3
:102870004FF00F0A00E000BF00BFBC48304418B161
:10288000B0F5806F1AD10CE04FF0090B00208DF8E5
:10289000120014208DF80400012148060BF081F885
:1028A0000DE04FF0090B0E208DF8120040208DF83E
:1028B0000400012100050BF074F800E000BF00BF28
:1028C000C4F3090078BBA012A0F580108038092855
:1028D00034D2DFE800F0050A0F14191E23292E0058
:1028E000012108460BF02AF829E0012102200BF013
:1028F00025F824E0012104200BF020F81FE001213D
:1029000008200BF01BF81AE0012110200BF016F83C
:1029100015E0012120200BF011F810E001214020EA
:102920000BF00CF80BE009E0012180200BF006F819
:1029300005E0012108020BF001F800E000BF00BF34
:102940005A46494620460AF03EFE5A46514620461F
:102950000AF039FE45EA0800099002208DF82800A7
:102960008DF8290000208DF82A0001208DF82B0019
:1029700009A920460AF09CFD30460CF0FFF9002022
:102980008DF81E008DF81F008DF820008DF82100B5
:102990008DF822008DF823008DF81A008DF81B00A9
:1029A0000B208DF81C0007208DF81D007D2F22D0F4
:1029B00008DC0A2F0FD0142F11D0322F13D0642F20
:1029C00029D114E0FA2F1AD0B7F5FA7F1BD0B7F54A
:1029D0007A7F20D11BE0C820ADF818001CE06420ED
:1029E000ADF8180018E02820ADF8180014E0142005
:1029F000ADF8180010E01020ADF818000CE0082029
:102A0000ADF8180008E00420ADF8180004E002203A
:102A1000ADF8180000E000BF00BF06A930460CF07A
:102A2000C6F900208DF8130001208DF81400002055
:102A3000ADF80800ADF80A00ADF80C00ADF80E00D6
:102A4000ADF8100001208DF8150002A80CF039FA3D
:102A500001208DF805008DF806008DF8070001A80B
:102A60000BF0AFF80122022130460CF029FD0BB02B
:102A7000BDE8F08F2DE9F04385B081460D469046C4
:102A80001E4600240095019500208DF808008DF861
:102A900009008DF80A6000BF06E018F804100DF177
:102AA0000B000155601C84B2B442F6DB694648460F
:102AB0000CF0F6FA0746002400BF394648460CF0F1
:102AC00087FB0128F9D105B0BDE8F0832DE9F0417D
:102AD00086B080460D4616461F460024002140461B
:102AE0000CF056FC18B9002006B0BDE8F08101AA30
:102AF000002140460CF0C9FB002405E00DF10F0059
:102B0000005D3055601CC4B2BC42F7DB0198286000
:102B10000120E9E730B585B004460020CDF80B0070
:102B2000CDF80F0066200090019000208DF808007D
:102B30008DF8090008208DF80A000D4804800078FF
:102B40008DF80B000A4841788DF80C10694607484B
:102B500040420CF0A5FA054600BF29460348404212
:102B60000CF036FB0128F8D105B030BD009CFFBF4A
:102B70002A00002000B59BB0012188050AF0DEFE86
:102B8000012108020AF01EFF012108460AF0D6FEC4
:102B9000012104200AF0D2FE00200290C0480390D8
:102BA000C0480490002005901E2006900020079049
:102BB0004FF4806008904000099080000A90401116
:102BC0000B9040020C9000200D9001200E900020F0
:102BD0000F90109002A9B4480CF06AFE0121B2488F
:102BE0000CF0A0FE8420009003208DF8040000204B
:102BF0008DF8070002208DF805006946AB480AF001
:102C000057FC3020009003208DF8040000208DF840
:102C1000070002208DF805006946A5480AF048FC27
:102C2000002011904FF480301290002013904FF448
:102C30007060149011A80CF0A7FF002015900120DF
:102C40008DF858008DF85900002017901990032036
:102C50008DF8680015A992484C380CF066FF0623E1
:102C600001220E218E484C380CF0E5FF062302228B
:102C70000F218B484C380CF0DEFF0623032207217E
:102C800087484C380CF0D7FF012185484C380DF0AF
:102C90007DF8012182484C380DF06DF80121804803
:102CA0004C380CF088FF7E484C380DF020F81BB0F3
:102CB00000BD01207F490860704702880B880380AF
:102CC0000A8070472DE9F0412DED0A8B064600255C
:102CD0000024A046002700BF0AE005EB450071492B
:102CE00001EB40004088744921F81500681CC5B20A
:102CF0000A2DF2DB002453E0012C2DD14FF0000807
:102D00001AE0002712E06C4830F817100246781CD1
:102D100032F81000814208DD13467A1C03EB4201B1
:102D20001A4602EB4700FFF7C8FF7F1CC8F10A00F4
:102D3000B842E8DC08F10108B8F10A0FE1DB5E49AE
:102D400009895D4A5289881800EBD071491009B28F
:102D50005A4A22F8141021E000250FE005EB450047
:102D6000504901EB400030F91400554951F8241046
:102D70000844534941F82400681CC5B20A2DEDDB14
:102D80004F4850F824000A2190FBF1F000B24B4963
:102D900021F8140000204A4941F82400601CC4B204
:102DA000032CA9DB43F29C1086426ADD454800688B
:102DB000032809DB00204349086040484088424915
:102DC0000880424806605CE03A48006840B9FFF776
:102DD00070FF3A4840883C4908803C48066050E013
:102DE0003649B1F90210384A1288501A0FF0D5FC52
:102DF00041EC1C0BB0EE4C0AF0EE6C0A0DF010FD2D
:102E0000B0EE40AAF0EE60AA30490968701A0FF0DF
:102E1000C4FC41EC1C0BB0EE4C0AF0EE6C0A0DF059
:102E2000FFFCB0EE40BAF0EE60BA53EC1A2B51EC56
:102E30001B0B0FF025FF41EC190BB0EE490AF0EE29
:102E4000690A0DF0EDFCB0EE408AF0EE608A9FED6D
:102E5000200B53EC102B51EC180B0FF003FE0AD291
:102E60001948008800B21549488016480068401C7F
:102E70001449086005E01148408813490880134848
:102E80000660BDEC0A8BBDE8F081002009490860AE
:102E900070470146094830F8110080B270470000C1
:102EA0004C200140341E002010640240000002400B
:102EB00000080240340000207C1E00202C0000206E
:102EC000701E0020380000203C0000204000002040
:102ED000000000000000594030B585B00446642071
:102EE0000090019000208DF808008DF8090008205E
:102EF0008DF80A0020788DF80B0061788DF80C10A1
:102F0000A1788DF80D10E1788DF80E1021798DF8EB
:102F10000F1061798DF81010A1798DF81110E179F9
:102F20008DF8121069466A480CF0BAF8054600BFE1
:102F3000294667480CF04CF90128F9D105B030BD9D
:102F400010B5644800210160416063206149087048
:102F50000846FFF7C1FF10BD10B55E4800210160B3
:102F6000416060205B4908700846FFF7B5FF10BD5F
:102F700010B558480021016041606B205549087028
:102F8000642048700846FFF7A7FF10BD10B55148F0
:102F900000210160416068204E4908706720487038
:102FA0000846FFF799FF10BD10B54A48002101609F
:102FB0004160682047490870642048700846FFF760
:102FC0008BFF10BD10B543480021016041607720A0
:102FD00040490870782048700846FFF77DFF10BD13
:102FE00010B53C48002101604160742039490870E7
:102FF0007B2048700846FFF76FFF10BD10B53548BD
:1030000000210160416074203249087078204870C6
:103010000846FFF761FF10BD10B52E480021016082
:1030200041606F202B490870702048700846FFF7F8
:1030300053FF10BD10B527480021016041606C208E
:1030400024490870732048700846FFF745FF10BDFB
:1030500010B520480021016041606C201D490870B6
:10306000702048700846FFF737FF10BD10B51948AB
:103070000021016041607F20164908700846FFF773
:103080002BFF10BD10B513480021016041607C206A
:10309000104908700846FFF71FFF10BD10B50D4816
:1030A00000210160416067200A4908706B20487068
:1030B0006F2088707320C870772008717B2048715A
:1030C0007F2088716320C8710846FFF705FF10BD97
:1030D000006400404400002008B506F058F809E0FC
:1030E0006A460021FE48006808F044FF06F0A7F990
:1030F00006F0C4F8F4E708B507E06A460021F9488D
:10310000006808F037FF02F080FDF6E72DED0A8B2E
:10311000ACB000202A908246299028900024814655
:103120002790269025902490002700260025804691
:1031300012A8DFEDED2A9FEDED2ADFEDED1A9FEDF0
:10314000ED1ADFEDED0A9FEDEB0A05F0A6F912A8E6
:10315000F3EE0E2A9FEDE92AF2EE041A9FEDE81A2B
:10316000F7EE080A9FEDE70A05F0A4F912A8DFEDD3
:10317000DE2A9FEDE52ADFEDE51A9FEDE51ADFED8A
:10318000DE0A9FEDDC0A05F0A2F9694612A805F0F7
:10319000ABF901F0EFBC2BAA0021DE48006808F073
:1031A000E9FE02F0E1FBBDEEC00A10EE10BA58468F
:1031B000FFF788FD01F056FE4FF0010805E008F02A
:1031C000FF00FFF73CFA08F10108B8F1060FF6DD41
:1031D0000420FFF7F2F94FF0010809E0404602F041
:1031E0000CFCA8F10101CC4A42F8210008F10108C9
:1031F000B8F1060FF2DD02F026FC00EE100AB8EE80
:10320000C00AC64880ED000A4FF40061C4480AF0C5
:10321000B1F940B2C3490870C34890F900000828CA
:1032200034DA02F0A1FBB0EE408A02F090FBF0EE3F
:10323000408AF0EE480A05F0C8F902F095FBB0EEBE
:10324000408A02F084FBF0EE408AF0EE480A05F076
:103250001FFA02F089FBB0EE408A02F078FBF0EE34
:10326000408AF0EE480A05F0F5FC02F07DFBB0EE76
:10327000408A02F06CFBF0EE408AF0EE480A05F05E
:103280001FFBA94890F9000005F054FE02F0E6FB90
:1032900007464FF40061A5480AF06CF9A8BB4FF44B
:1032A00000419F480AF066F9012835D19E4890F9FF
:1032B0000000422804DB9C4890F9000045282BDDE3
:1032C0002598401C259025980A2827D10421944848
:1032D0000AF06AF94FF4FA719548FDF79CFA042157
:1032E0008F480AF063F9002025908F4890F900007C
:1032F0000C280BDB8C4890F900000F2806DC6E20B0
:10330000894908708B49087008E005E05820864913
:1033100008708849087001E000202590824890F9E3
:1033200000000E287BD011DC81F01E84DFE810F055
:1033300038005F018201C0010A027902EC02A90390
:103340004C04FC049F05F7058B06CC07582801F0B8
:10335000E68110DC43287DD007DC15287BD01628B9
:103360007AD0422841F00084FDE3442875D04528F6
:10337000F8D101F0C4B9702801F0F88209DC5928AD
:1033800001F008826E2801F04C826F28EAD101F02A
:103390006EBA712801F061837228E3D101F0E1BBBC
:1033A00001215F480AF0E6F8012811D102215C48AA
:1033B0000AF0E0F801280BD12798401C27902798A5
:1033C000142807D10020279016205749087001E0E3
:1033D000002027904FF4006154480AF0CBF8F8B968
:1033E0004FF400414E480AF0C5F8C8B92498401C73
:1033F00024902498142815D10020249042204A4972
:103400000870042146480AF0CFF84FF47A71484812
:10341000FDF701FA042142480AF0C8F802E0FCE393
:10342000002024904FF400613D480AF0A3F80128E1
:1034300002D02A98012851D1299828B93EA14048A4
:10344000FEF7A4FD01202990B42108070AF0C3FE6D
:10345000002003E0FEE3FEE3FEE3FEE335490870EF
:1034600002203849087001202A9037490860323517
:1034700040F69800854200DB054602F075FAB0EE92
:10348000408A02F064FADFED310A20EE200AF0EE05
:10349000408A69464FF0FF30B0EE482AF0EE681AD5
:1034A000BBEE0E1ADFED2A0A00EE105AB8EEC00A83
:1034B00003F098FE02F04BFADFED260AB4EEE00AC4
:1034C000F1EE10FA0ADB002502F071FB04F0E1FFD7
:1034D000214A11460120FEF78AFE3FE085E0000008
:1034E00054000020500000208FC2F53C6F12033BB7
:1034F0000AD7A33C9A99193E0AD7233CCDCC4C3E1F
:103500000000F04200007042A69B443B0AD7233DD6
:10351000CDCCCC3D4C000020A83A0020700000200B
:10352000001002409A0000205800002000040240D1
:10353000000C0040670000204143543000000000B0
:1035400000480040650000205C0000203333B33D9C
:103550000000AA4200C08D4480969800FE4A1146A1
:103560000220FEF744FEFC4A11460320FEF73FFE10
:1035700012A8DFEDFA2A1FED1C2A5FED251A9FED38
:10358000F81A5FED230AB5EE000A04F086FF12A8D0
:10359000F3EE0E2A9FEDF22AF3EE091A9FEDF11ACF
:1035A000F7EE000A9FEDF00A04F084FF12A85FED29
:1035B000322A1FED2B2A5FED2B1A1FED2B1A5FED20
:1035C000320A1FED340A04F082FF694612A804F0A3
:1035D0008BFFE6480078401C40B2E4490870E4489C
:1035E0000078401C40B2E249087001F0BEBA07F60C
:1035F00098006A460021DFEDDF1ABBEE0E1AFBEEE3
:103600000C0A1FED2D0A01F01BFE012811D102F05A
:10361000CEFAFFF7D7FC04F03CFFD4480078401CFA
:1036200040B2D2490870D2480078401C40B2D0491C
:103630000870DAE702F08BF9B0EE408A02F094F9F4
:10364000DFEDCD0A30EEC00ADFEDCC0A80EE201AA5
:10365000F0EE418A07F6980000EE900AF8EEE00AD4
:10366000B0EE600A69460120B0EE482AF0EE681A12
:10367000BBEE0E1AFBEE0E0A03F0B4FD02F074F975
:10368000DFEDBF0AB4EEE00AF1EE10FA0FDD02F052
:103690008EFA04F0FEFEB5480078401C40B2B349F3
:1036A0000870B3480078401C40B2B14908709CE7EC
:1036B0005035B5F5966F01DB4FF496650020FFF7A6
:1036C000E8FB00EE100AB8EE400AB0EE408A9FED2B
:1036D000AD0A02F0B7F800EE100AB8EEC00AF0EE3C
:1036E000408A05F69800384400EE900AF8EEE00AA9
:1036F000B0EE600A69464FF0FF30B0EE482AF0EEB7
:10370000681ABBEE0E1AFBEE0E0A03F06BFD02F018
:103710002BF9DFED9D0AB4EEE00AF1EE10FA10DBB2
:10372000002502F044FA04F0B4FE90480078401CF2
:1037300040B28E4908708E480078401C40B28C49D7
:10374000087052E702F003F9B0EE408A02F00CF97B
:10375000DFED890A30EEC00ADFED880A80EE201A1C
:10376000F0EE418A07F6485000EE900AF8EEE00AC3
:10377000B0EE600A69460120B0EE482AF0EE681A01
:10378000BBEE0E1AFBEE0E0A04F0BFF902F0ECF8E5
:10379000DFED7E0AB4EEE00AF1EE10FA40DB02F053
:1037A00006FA12A8DFED6D2A1FEDA92A5FEDB21A05
:1037B0009FED6B1A5FEDB00A1FEDB20A04F06DFECB
:1037C00012A8F2EE042A9FED662AF1EE0C1A9FED84
:1037D000701AF7EE000A1FEDB50A04F06BFE12A88E
:1037E0005FEDBF2A1FEDB82A5FEDB81A1FEDB81ABA
:1037F0005FEDBF0A1FEDC10A04F069FE694612A819
:1038000004F072FE59480078401C40B257490870D5
:1038100004F03FFE56480078401C40B254490870FE
:10382000E3E60020FFF735FB00EE100AB8EE400A91
:10383000B0EE408A9FED570A02F004F800EE100A3D
:10384000B8EEC00AF0EE408A07F6485000EE900A43
:10385000F8EEE00AB0EE600A69464FF0FF30B0EED5
:10386000482AF0EE681ABBEE0E1AFBEE0E0A03F0C1
:10387000B9FC02F079F8DFED480AB4EEE00AF1EEA7
:1038800010FA40DB02F093F904F003FE37480078A9
:10389000401C40B23549087012A8DFED302A1FEDF8
:1038A000E62A5FEDEF1A9FED2E1A5FEDED0A1FED90
:1038B000ED0A04F0F2FD12A8F2EE042A9FED282A88
:1038C000F1EE0C1A9FED321AF7EE000A1FEDF30A23
:1038D00004F0F0FD12A85FEDFC2A1FEDF52A5FED64
:1038E000F51A1FEDF51A5FEDFC0A9FED2C0A04F0A6
:1038F000EEFD694612A804F0F7FD1D480078401C53
:1039000040B21B49087070E606201849087002F0A2
:103910002BF8DFED230AB4EEE00AF1EE10FA0EDB2D
:10392000BAF1000F0BD14FF0010A0020FFF7B1FAF6
:103930008346002101F047FF28200C490870002031
:10394000FFF7A7FAB0F5FA7F35DDBAF1010F32D1F2
:103950004FF0020A26E0000080969800CDCC4C3D46
:103960009A99993E00007A430000C84267000020FF
:10397000580000200000AF44CD4CC0452DB2DD3FC3
:103980000080094500C0484400D0384500007A4511
:103990000000B4420080F843001083459A99193E14
:1039A0000040CE4501F0E0FFB0EE408A01F035FF67
:1039B0001E20FE4908704636B6F5617F01DD4FF4E2
:1039C000617640F67461891BC8196A460121DFEDF2
:1039D000F81A9FEDF81ADFEDF70ABBEE0E0A01F0B8
:1039E00057FD01284CD100260020FFF752FA8346EC
:1039F000012101F0E8FE02F0DAF8EF480068EF4933
:103A000008600120EE49087004F043FD0720E749F3
:103A1000087012A85FED2F2A9FEDEA2ADFEDEA1A5F
:103A20001FED311ADFEDE90A1FED240A04F035FD20
:103A300012A8F2EE042A1FED362AF1EE0C1A1FED41
:103A40002C1AF7EE000A9FEDE20A04F033FD12A8EB
:103A5000DFEDDD2A9FEDDB2ADFEDDE1A9FEDDE1ABA
:103A6000DFEDDA0A1FED330A04F031FD694612A8D2
:103A700004F03AFDD9480078401C40B2D74908709C
:103A8000B3E50720C949087001F06EFF5FED3C0AFD
:103A9000B4EEE00AF1EE10FA0EDBBAF1000F0BD132
:103AA0004FF0010A0020FFF7F4F98346002101F0EE
:103AB0008AFE2820BD4908700020FFF7EAF9B0F51A
:103AC000FA7F0DDDBAF1010F0AD14FF0020A01F0C1
:103AD0004BFFB0EE408A01F0A0FE1E20B3490870F3
:103AE00001F035FFB0EE408A01F06BFFF0EE408A46
:103AF00007F6C41000EE900AF8EEE00AB0EE600A95
:103B000069460120B0EE482AF0EE681A9FEDA91A26
:103B1000DFEDA80A03F066FB01F026FFDFEDB00A37
:103B2000B4EEE00AF1EE10FA4DDB78214FF0804060
:103B30000AF051FB02F03BF8FFF752FA12A85FEDD2
:103B4000792A9FEDA82ADFEDA01A1FED7B1ADFED81
:103B5000A60A1FED6E0A04F0A0FC12A8F3EE0E2ACE
:103B60001FED812A00E0FDE3F3EE091A1FED831A31
:103B7000F0EE000A1FED840A04F09CFC12A8DFEDB1
:103B8000922A9FED902ADFED931A9FED931ADFEDB5
:103B90008F0A1FED7E0A04F09AFC694612A804F011
:103BA000A3FC04F076FC0820804908708B4800785C
:103BB000401C40B2894908704FF0000A4FF48071F0
:103BC0008A4809F0F3FC10E50820784908706A4635
:103BD0000021DFED871A9FED771A5FED930A9FEDC5
:103BE000750A40F63C7001F02BFB2698082804DA91
:103BF0002698401C2690FFF7BBF92698082801D18B
:103C0000FFF7D2F901F01FFFC0F52F70052190FBDF
:103C1000F1F0C0F1FA0B584600E065E30EF0BDFD8F
:103C200041EC180B01F0ADFE10EE10BA58460FF043
:103C300011F941EC1C0BB0EE4C0AF0EE6C0A02F0EC
:103C40005DF9B0EE40AAF0EE60AA0120FFF721F97D
:103C5000834603E0FEE350E35BE3FCE30EF0B4FDD8
:103C600041EC1B0B53EC1A2B0EF0FEFD41EC190B33
:103C700053EC182B0EF0BCFD30D801F075FEDFEDD3
:103C80005D0AB4EEE00AF1EE10FA27DD01F079FEEC
:103C900010EE10BA58460FF0DDF841EC1B0BB0EEF9
:103CA0004B0AF0EE6B0A02F029F9B0EE409AF0EE02
:103CB000609A0120FFF7EDF883460EF085FD41EC98
:103CC0001A0B53EC192B0EF0CFFD41EC180B9FEDA6
:103CD0004A0B53EC102B0EF08BFD08D901F037FE88
:103CE000DFED470AB4EEE00AF1EE10FA1BDB40F616
:103CF000B8309FED300A01F06FF801F058FF09204D
:103D00002A490870FFF734F904F0C3FB4FF0000AAA
:103D10004FF48071354809F047FC30480078401C6A
:103D200040B22E49087060E4092020490870012043
:103D3000FFF7AFF8834601F086FE052190FBF1F016
:103D4000ABEB000000EE100AB8EEC00AB0EE408AFD
:103D500069460120B0EE482ADFED2A1A9FED151AB8
:103D60005FEDF50A9FED280A03F03CFA01F0EFFD44
:103D7000DFED230AB4EEE00AF1EE10FA76DB12A8CA
:103D8000DFED112A9FED212ADFED0F1A1FEDFD1A3D
:103D9000DFED150AB5EE000A04F07FFB12A8F3EE82
:103DA0000E2A9FED1B2AF2EE041A33E06700002072
:103DB0000080BBC50000000060000020FC3A00202D
:103DC00068000020A69B443B8FC2F53C0AD7233CE9
:103DD000000070420AD7233DCDCCCC3D58000020D6
:103DE000005410460AD7A33B0AD7A33C0000024068
:103DF00000806DC5007046460000000000406F4026
:103E000000107E450000DC4200C073456F12033B8A
:103E1000CDCC4C3E9FEDFA1AF7EE080A1FED140ABE
:103E200004F048FB12A85FED182A1FED1A2A5FED77
:103E3000171A1FED171A5FED1B0A9FEDF20A04F027
:103E400046FB694612A804F04FFB01F0B0FEFFF7F5
:103E5000C7F8ED480078401C40B2EB4908704FF0BD
:103E6000000A04F016FB0A20E84908701FE40A2043
:103E7000E64908704636B6F5C86F01DD4FF4C866EE
:103E80000120FFF706F8834601F0DDFD052190FBD8
:103E9000F1F0ABEB000000EE100AB8EEC00AB0EE95
:103EA000408A40F69800801B00EE900AF8EEE00A87
:103EB000B0EE600A69460120B0EE482A5FED2F1A85
:103EC0001FED441ADFEDD20A03F08CF94FF40071B4
:103ED000D04809F04FFB012801D109F10109B9F1DE
:103EE0000A0F1BD14FF48071CB4809F05FFB4FF0F4
:103EF0000009FFF767F80220FEF71EF9C7480068BF
:103F0000C74948600220C74908700B20BF490870A4
:103F1000BD480078401C40B2BB49087011E4C2495A
:103F20000520FEF7CAF9C0490620FEF7C6F901F0E0
:103F300042F90121BD4809F01DFB01281DD101F006
:103F400020FD10EE10BA58460EF084FF41EC190B1C
:103F5000B0EE490AF0EE690A0CF062FCB0EE408A5D
:103F6000F0EE608A9FEDB20B53EC102B51EC180B66
:103F70000EF078FD01D801F01EF90121AB4809F0DF
:103F8000F9FA01285ED101F0FCFC10EE10BA584697
:103F90000EF060FF41EC190BB0EE490AF0EE690A31
:103FA0000CF03EFCB0EE408AF0EE608A9FEDA00B74
:103FB00053EC102B51EC180B0EF01AFC42D200F00F
:103FC000B1FF002028909C4B9C4A11460420FEF72C
:103FD000D1F992480068924988600320914908709D
:103FE00000F0A0FFFFF742F86FF4F77004F0D4FA86
:103FF000C8219348FCF70FFCFEF7A2FFFFF71AF861
:1040000000240CE0FEF7C2FF0A218D48FCF703FCF8
:10401000FEF7CAFF78218A48FCF7FDFB641C052CDB
:10402000F0DBFEF7B3FF2BAA00218648006808F0FA
:10403000B7F875480078401C40B2734908700C20EE
:10404000724908705FE40121784809F093FA78B961
:1040500009F10109B9F10A0F09D14FF00009002156
:104060000520FEF72AF900210620FEF726F92AE1AD
:104070004FF40061674809F07DFA01280FD104214F
:10408000644809F091FA70490520FEF716F96E4967
:104090000620FEF712F96C486C490861486102215C
:1040A000624809F067FA01286BD12898401C2890D3
:1040B0002898322865DD002028900121554809F014
:1040C00059FA40B2624908700221524809F052FA86
:1040D00040B25F4948704FF400614E4809F04AFA17
:1040E00040B25C49087000210520FEF7E6F8002187
:1040F0000620FEF7E2F80020574908606421504886
:10410000FCF789FBFEF728FF64214D48FCF783FB91
:104110006FF4E87004F040FA002412E0FEF728FF84
:10412000022C03DB6FF4847004F036FA0821444853
:10413000FCF771FBFEF738FF78214148FCF76BFB79
:10414000641C052CEADB00210520FEF7B6F80021EF
:104150000620FEF7B2F8314800683149C8600420F3
:104160003049087028480078401C40B22649087041
:104170000D20264908702BAA00213248006808F05B
:104180000FF80121234809F0F5F9012805D0022193
:10419000204809F0EFF901287ED10221234809F0D7
:1041A000E9F9012878D101211A4809F0E3F940B270
:1041B000274908700221174809F0DCF940B2244968
:1041C00048704FF40061134809F0D4F940B2214916
:1041D000087000210520FEF770F800210620FEF788
:1041E0006CF800201C49086064211548FCF713FB9B
:1041F000FEF7B2FE64211248FCF70DFB002440E0FC
:104200000000F0429A99193E5800002067000020F3
:104210000000B44200100240000002406000002094
:10422000FC3A002068000020D0DD060000040240B7
:104230000000000000001C40E093040020A10700E3
:10424000000C00404C000020400D0300903A00207C
:10425000980000209A0000205C000020FEF788FEF5
:10426000022C03DB6FF4847004F096F90821FD48FA
:10427000FCF7D1FAFEF798FE7821FA48FCF7CBFA62
:10428000641C052CEADB00210520FEF716F800214E
:104290000620FEF712F800E015E0F3480068F34945
:1042A000C8600420F2490870F2480078401C40B20F
:1042B000F04908700D20F04908702BAA0021EF4842
:1042C000006807F06DFF7EE44FF40061EC4809F0F0
:1042D00051F940B9E7480078401C40B2E549087000
:1042E0000E20E54908706EE400210520FDF7E5FF8A
:1042F00000210620FDF7E1FF65E400F013FE6421D4
:10430000E04809F066FF78214FF0804009F063FF34
:1043100059E4DD490120FDF7D0FFDB490220FDF71C
:10432000CCFFD9490320FDF7C8FF42F21071CD48F8
:10433000FCF771FA00210120FDF7BFFF00210220E8
:10434000FDF7BBFF00210320FDF7B7FF4FF47A71A3
:10435000C448FCF760FACC4949420120FDF7ADFFA3
:10436000C94900E01FE049420220FDF7A6FFC64907
:1043700049420320FDF7A1FF42F21071B948FCF752
:104380004AFA00210120FDF798FF00210220FDF7E5
:1043900094FF00210320FDF790FF4FF47A71B1489C
:1043A000FCF739FAE1E30020FEF7B4FBB748FBF76E
:1043B00095FF0120FEF7AEFBB448FBF78FFF02200C
:1043C000FEF7A8FBB148FBF789FF0320FEF7A2FB2D
:1043D000AE48FBF783FF0420FEF79CFBAB48FBF7DE
:1043E0007DFF0520FEF796FBA94804F0D5F805F0FF
:1043F00011FAA848FBF772FF05F02BFAA648FBF765
:104400006DFF05F015FAA348FBF768FF05F021FAE8
:10441000A248FBF763FFA2490520FDF74EFFA04924
:104420000620FDF74AFFFEF705FE9E48FBF756FF04
:10443000FEF7F2FD9B48FBF751FF00210520FDF739
:104440003CFF00210620FDF738FF8A480078401C19
:1044500040B201E003E04EE08649087085E30024A5
:104460000CE0FEF785FD0F217E48FCF7D4F9FEF73E
:104470009BFD50217B48FCF7CEF9641C0A2CF0DB35
:10448000FEF776FD8448FBF729FFFEF759FD8248C9
:10449000FBF724FFFEF760FD7F48FBF71FFF0024BA
:1044A0000CE0FEF773FD0F216E48FCF7B4F9FEF740
:1044B0007BFD50216B48FCF7AEF9641C0A2CF0DB45
:1044C000FEF764FD7848FBF709FFFEF789FD7648A3
:1044D000FBF704FFFEF776FD7348FBF7FFFEFEF7E0
:1044E000C5FD7148FBF7FAFE62480078401C40B2F7
:1044F0006049087039E301216C4809F03BF8012854
:1045000007D105F0B4F96A48FBF7E8FE02206949D3
:1045100008704FF400715A4809F02CF8012807D1AF
:1045200005F0A5F96248FBF7D9FE02206149087041
:1045300002215E4809F01EF8012804D105F097F920
:104540005B48FBF7CBFE01214D4809F013F8012829
:1045500004D105F08CF95648FBF7C0FE022148480B
:1045600009F008F8012804D105F081F95048FBF75B
:10457000B5FE01F0DFF9022804D105F078F94E48C4
:10458000FBF7ACFE4FF40061484808F0F3FF20B998
:1045900005F06DF94848FBF7A1FE4FF4004138489B
:1045A00008F0E8FF20B905F062F94348FBF796FEF2
:1045B0004FF40061324808F0DDFF012851D140F688
:1045C000B8309FED3E0A00F007FC78212D4809F035
:1045D00000FE8C214FF0804009F0FDFD04212848A9
:1045E00008F0E4FF022033490870C101344808F0A4
:1045F000DDFF2948FBF772FE4FF48071304808F068
:10460000D3FF2548FBF76AFE4FF480712C4808F071
:10461000CDFF2148FBF762FE4FF48071284808F077
:10462000C3FF1D48FBF75AFE40F6B8309FED250A40
:1046300000F0D2FB4FF48071214808F0B7FF164814
:10464000FBF74CFE4FF480711D4808F0ADFF124897
:10465000FBF744FE4FF48071194808F0A7FF0E489D
:1046600032E04BE0000C004060000020FC3A0020EB
:104670006800002058000020670000204C00002047
:104680000010024000040040803801007F8B0800C9
:10469000D4FEFFFFFF79030AFF3EAB01FF72550016
:1046A000F0490200FFBC0105FF7D560300040240F3
:1046B000FFE5AA0065000020FFCB55010000DC42A9
:1046C000000002400000DCC2FBF708FE4FF48071DE
:1046D000FE4808F069FF4FF48071FC4808F064FF61
:1046E0006421FB4809F075FD6421080709F073FD9A
:1046F000F8480078401C40B2F649087035E20220C4
:10470000F549087001F030F9B0EE408A01F01FF968
:10471000F0EE408AF0EE480A03F0BAFF25E20120ED
:10472000FDF70AFD0220FDF707FD0320FDF704FD5C
:104730000420FDF701FD0520FDF7FEFC0620FDF736
:10474000FBFCFEF74DFCFEF767FC00240CE0FEF7D7
:104750001DFC0A21E148FCF75EF8FEF725FC3C2130
:10476000DE48FCF758F8641C0A2CF0DBFEF70EFC60
:104770004FF4FA61D948FCF74EF8D6480078401C4F
:1047800040B2D4490870D6480078401C40B2D449A1
:104790000870EAE14FF40041D24808F0EBFEE8BBB4
:1047A0000421D04808F000FF0120FDF783FC02201F
:1047B000FDF780FC0320FDF77DFC0420FDF77AFC6B
:1047C0000520FDF777FC0620FDF774FCFEF7C4FB1F
:1047D000FEF7F8FBFEF720FCFEF754FCC249C34885
:1047E000FDF7D4FB0020299082462A9004F047FC74
:1047F00001F0FBF901F0FFF94FF47A71B748FCF7CB
:104800000AF80421B74808F0D1FE0020B149087029
:10481000B3480078401C40B2B14900E000E00870A5
:10482000A3E16E20AE4908700120FDF785FC02204F
:10483000FDF782FC0320FDF77FFCFEF78DFBFEF702
:10484000EBFBFEF71FFC00202A904FF4FA61A3480F
:10485000FBF7E1FF9F480078401C40B29D4908707B
:104860009F480078401C40B29D4908707DE14FF49C
:1048700000419C4808F07EFEE8BB0421994808F0FE
:1048800093FE0120FDF716FC0220FDF713FC032028
:10489000FDF710FC00F046FBFEF794FBFEF750FB23
:1048A0004FF4FA718D48FBF7B6FF00240CE0FEF7D9
:1048B0006DFB0A218948FBF7AEFFFEF775FB3C2133
:1048C0008648FBF7A8FF641C0A2CF0DBFEF75EFBB2
:1048D000FEF7D8FB002000F061FF12A8DFED842A6C
:1048E0009FED842ADFED841A9FED841ADFED840AA0
:1048F0009FED840A00E038E003F0CFFD12A8F3EE4C
:104900000E2A9FED812AF2EE041A9FED801AF7EE2F
:10491000080A9FED7F0A03F0CDFD12A8DFED742A8F
:104920009FED752ADFED7B1A9FED761ADFED7A0A8F
:104930009FED720A03F0CBFD694612A803F0D4FD87
:104940004FF4FA716548FBF766FF0421654808F0EB
:104950002DFE60480078401C40B25E4908706048F7
:104960000078401C40B25E490870FEE04FF40061E0
:104970005C4808F0FFFD012802D02A9801286BD17D
:1049800001202A90323540F68C20854200DB054616
:104990000120FEF77EFA00EE100AB8EE400AB0EEF3
:1049A000408A69460120B0EE482A5FEDBC1A9FEDAF
:1049B000541ADFED5A0A00EE105AB8EEC00A02F09F
:1049C00011FC00F0C4FFDFED560AB4EEE00AF1EE90
:1049D00010FA41DB12A8DFED462A9FED462ADFEDF3
:1049E000441A9FED461ADFED4C0A9FED470A03F08B
:1049F00054FD12A8F3EE0E2A9FED432AF2EE041A9C
:104A00009FED421AF7EE080A9FED410A03F052FDAE
:104A100012A8DFED372A9FED382ADFED3E1A9FED11
:104A2000391ADFED3D0A9FED350A03F050FD694666
:104A300012A803F059FD01F0BAF8FEF7D1FA4FF0D1
:104A4000000A03F026FD23480078401C40B22149AB
:104A5000087071202249087087E00A2020490870F8
:104A60004636B6F5966F01DD4FF496660120FEF7E7
:104A700010FA834600F0E7FF052190FBF1F0ABEB65
:104A8000000000EE100AB8EEC00AB0EE408A40F610
:104A90009800801B00EE900AF8EEE00AB0EE600A83
:104AA00069460120B0EE482A5FEDFC1A9FED141A0A
:104AB000DFED1A0A02F096FB4FF40071094808F086
:104AC00059FD012801D109F101092BE00000024044
:104AD000000400405800002065000020000C004049
:104AE00067000020001002403835000800480040F0
:104AF0008FC2F53C6F12033BA69B443B9A99193E2B
:104B000000000000CDCCCC3DCDCC4C3E0000F042AE
:104B1000000070420AD7233D0AD7233C0000B4426C
:104B200000F88945B9F10A0F1AD14FF4807187480E
:104B300008F03CFD6620FDF7EDFF4FF00009FEF7A1
:104B400041FA0220FDF7F8FA81480068814948607F
:104B50000220814908700B20804908708049087044
:104B600003E000F0DFF900E000BF00BF7D4800680F
:104B700007F0BBFAFEF70FBB1CB500249DF804003C
:104B800001904FF4A06009F017F84FF40070431043
:104B9000754A4FF4FA7100907448FDF797FDFDF7E0
:104BA0007DFA0120FDF786FA0220FDF783FA032043
:104BB000FDF780FA0420FDF77DFA0520FDF77AFA6B
:104BC0000620FDF777FAFEF7C7F9FEF7FBF900BFFD
:104BD0000CE0FEF7DBF908216548FBF71CFEFEF749
:104BE000E3F978216248FBF716FE641C052CF0DB24
:104BF000FEF7CCF9FEF702FAFEF70EFAFEF742FADC
:104C00004FF47A715A48FBF706FE5A48FCF74DFDFF
:104C100000F0D0F840F2473140F2CF70FBF709FEC8
:104C200040F2473140F2CF70FBF752FEFDF7A2FF92
:104C30004FF4FA514E48FBF7EEFDFCF767FCFCF72A
:104C4000A0FC04214C4808F0AFFC4FF480713F48B1
:104C500008F0AAFCFCF770FCFCF75FFCFCF764FCB6
:104C6000FCF787FCFCF76FFCFCF775FCFCF77AFCA3
:104C7000FCF78EFCFCF7A4FC4FF4E130FCF7CEFC13
:104C80004FF4E130FCF766FD3C4A11460120FDF788
:104C9000AEFA3A4A11460220FDF7A9FA384A1146FF
:104CA0000320FDF7A4FA374B374A11460420FDF7DD
:104CB00061FB334A11460520FDF799FA304A114647
:104CC0000620FDF794FA0320034640F2473240F2F3
:104CD000E73100904FF08040FBF705FB01AA00216F
:104CE0002A48006807F05CFAFF2007F015FE1CBD9B
:104CF00010B500BF002007F0ABF824490860002081
:104D000007F0A6F822490860002007F0A1F815492D
:104D100008600B231F4A00211F4807F042FB04468E
:104D20000D231E4A00211E4807F03BFB04460C23BE
:104D30001C4A00211C4807F034FB04460E231B4A82
:104D400000211B4807F02DFB044610BD0000024067
:104D500060000020FC3A002068000020670000206E
:104D6000580000205400002000040240006400406D
:104D7000000C004040420F0000100240404B4C002D
:104D800080969800E0930400C0C62D004C000020DF
:104D9000500000208C260020794B00088C32002027
:104DA0000D3100088C2A0020F73000088C3A0020D2
:104DB000D930000810B52EA13148FDF7E7F810BD35
:104DC00010B530A12E48FDF7E1F810BD10B531A1A6
:104DD0002B48FDF7DBF810BD10B52DED028BB0EEC2
:104DE000408A0446DFED2F0A88EE200ADFED2E0A06
:104DF00020EE200AB3EE0E1AC0EE010A9FED2B1A28
:104E00009FED2B0A00EEC10AF0EE408A2346BDEE6C
:104E1000E80A10EE102A27A11948FDF7B7F8BDECF3
:104E2000028B10BD70B504460D462B46224627A1C5
:104E30001348FDF7ABF870BD10B50446624229A1D6
:104E40000F48FDF7A3F810BD10B50446224625A172
:104E50000B48FDF79BF810BD10B528A10848FDF7D9
:104E600095F810BD10B52BA10548FDF78FF810BDC2
:104E7000233120572034302C312C310D0A00000012
:104E800000100140233120572032302C312C300DBE
:104E90000A000000233120572032302C312C310DF4
:104EA0000A0000000000B4430000804500005042AA
:104EB00000000045233120572034322C322C256449
:104EC0003A34362C322C25640D0A00002331205749
:104ED0002034362C322C25643A34342C322C256480
:104EE0000D0A0000233120572034362C322C256443
:104EF0003A34342C322C300D0A0000002331205774
:104F00002034362C322C303A34342C322C300D0AEA
:104F100000000000233120522035362C322C310D78
:104F20000A00000010B500210120FDF7C6F900219C
:104F30000220FDF7C2F900210320FDF7BEF910BDE4
:104F40002DE9F0432DED108B83B00646B0EE408A7C
:104F5000F0EE608A00250024FE480068FE490860E3
:104F6000FC4840684860FB4880688860B0EE680A8A
:104F700001F080F8814600EE106AB8EEC00A01F038
:104F800079F8804648460DF008FC41EC1A0B00F019
:104F9000F8FC38EE400ADFEDF10A30EE200A10EEA0
:104FA000107A38460DF056FF41EC1E0BB0EE4E0A5B
:104FB000F0EE6E0A00F0A2FFB0EE40CAF0EE60CA5A
:104FC00040460DF0EAFB41EC1D0B53EC1C2B0DF0A1
:104FD0004BFC41EC1B0B53EC1A2B0DF09BF941ECF5
:104FE000190B0DF0ABFBDE49886048460DF0D5FB90
:104FF00041EC1A0B00F0C5FC38EE400ADFEDD90A8F
:1050000030EE200A10EE107A38460DF023FFCDE97D
:1050100000019DED000B00F071FFB0EE40EAF0EEF4
:1050200060EA40460DF0B9FB41EC1D0B53EC1E2B22
:105030000DF01AFC41EC1C0B0DF02DF941EC1B0B93
:1050400053EC1A2B0DF066F941EC190B0DF076FBC1
:10505000C349486048460DF0A0FB41EC190B00F035
:1050600090FC38EE400ADFEDC00A30EE200A10EE68
:10507000107A38460DF0EEFE41EC1D0BB0EE4D0AF5
:10508000F0EE6D0A00F03AFF8DED000B40460DF09A
:1050900084FB41EC1C0B9DED000B53EC102B0DF031
:1050A000E3FB41EC1B0B0DF0F6F841EC1A0B53EC53
:1050B000192B0DF02FF941EC1E0B0DF03FFBA84909
:1050C000086000BF33E028460DF067FB41EC190B88
:1050D000A34951F824000DF060FB41EC1B0BB0EE2E
:1050E0004B0AF0EE6B0A0BF09BFBB0EE40AAF0EE21
:1050F00060AA53EC192B51EC1A0B0DF0B3FC15D22E
:10510000974951F824000DF048FB41EC1A0BB0EE22
:105110004A0AF0EE6A0A0BF083FBB0EE409AF0EE1A
:10512000609A51EC190B0DF009FB0546641C032C29
:10513000C9DB8E48854220DD04218D4808F034FA11
:10514000002418E0864850F8240000EE100AF8EE1B
:10515000C00A00EE105AB8EEC00A80EE80FA9FED49
:10516000850A2FEE000ABDEEC00A10EE100A7C4937
:1051700041F82400641C032CE4DB79480168012019
:10518000FDF79BF8764841680220FDF796F87448D1
:1051900081680320FDF791F8714800686D49086047
:1051A0006F48406848606E488068886003B0BDEC16
:1051B000108BBDE8F08310B52DED088B9FED690ACB
:1051C000B0EE408A00249FED670AB0EE409A6A482C
:1051D00008EE900A00F0D5FB39EE400AB0EE408AA6
:1051E00018EE100A0DF036FE41EC1B0BB0EE4B0A28
:1051F000F0EE6B0A0BF014FBB0EE40AAF0EE60AAE2
:105200009FED5E0B53EC102B51EC1A0B0DF0F0FAE6
:1052100003D29FED540AB0EE408AB8EEE80A28EEB9
:10522000000ABDEEC00A10EE104A21460120FDF72B
:1052300044F821460320FDF740F8BDEC088B10BD73
:10524000F7B52DED040B2DED108B82B00446F0EE7A
:10525000409AB0EE609AB0EE618A0D461646F0EEC6
:10526000690AB0EE480A00F03DFFB0EE40FAF0EEF9
:10527000690AB0EE480A00F06EFFF0EE40FA00F066
:1052800073FB30EE6F0A10EE107A38460DF0E2FD37
:1052900041EC1E0B9FED3B1BB0EE4E0AF0EE6E0A8A
:1052A0000BF0CAFAB0EE40CAF0EE60CA00F04FFB55
:1052B00030EE4F0A10EE107A38460DF0CBFD41EC7F
:1052C0001E0B9FED301BB0EE4E0AF0EE6E0A0BF097
:1052D000B3FAB0EE40DAF0EE60DA53EC1C2B51EC8E
:1052E0001D0B0DF017F841EC1B0BB0EE4B0AF0EE66
:1052F0006B0A0CF021F9B0EE40AAF0EE60AA51EC76
:105300001A0B0CF0D5FF0190F0EE690AB0EE480AD6
:1053100000F05AFF10EE107A38460DF09BFD41EC7C
:105320001D0BB0EE4D0AF0EE6D0A00F02BFEB0EE54
:1053300040BAF0EE60BA9FED150A30EE690A10EE41
:10534000101A08460DF086FD41EC1C0B53EC1B2B8C
:105350001EE00000303B0020903A00200000704228
:10536000243B0020000000000000F042A06806007E
:10537000001002400014CD4818FCFFFF00000000A0
:105380000000F03F00000000000000400000B442B8
:105390000DF076FC41EC1A0B0CF08AFF00909DEDAD
:1053A000000A39EE800AF0EE408AB5EEC08AF1EECE
:1053B00010FA34DD012D0FD1314601209DED012A77
:1053C000F0EE481AB0EE681AF0EE680A00EE104AE5
:1053D000B8EEC00A01F006FF7DB9314601209DED0F
:1053E000012AF0EE481A9DED141AF0EE680A00EE5C
:1053F000104AB8EEC00A01F0F5FEF4EEC98AF1EEEB
:1054000010FA05D8012002B0BDEC108B07B0F0BD3A
:10541000F4EEC98AF1EE10FA38DD0020F3E7B5EEBC
:10542000C08AF1EE10FA31D2012D0FD13146A81EFB
:105430009DED012AF1EE481AB0EE681AF0EE680A06
:1054400000EE104AB8EEC00A01F0CCFE85B9314634
:105450004FF0FF309DED012AF1EE481A9DED141A30
:10546000F0EE680A00EE104AB8EEC00A01F0BAFE8B
:10547000F4EEC98AF1EE10FA01DB0120C3E7F4EE85
:10548000C98AF1EE10FA01D20020BCE70220BAE787
:10549000F7B52DED040B2DED108B84B00446B0EE66
:1054A000409AF0EE609AF0EE618A0D4616469FED46
:1054B000FE0A8DED010AF0EE490AB0EE680A00F02E
:1054C00011FEF0EE40EAF0EE490AB0EE680A00F094
:1054D00042FE8DED020A00F047FADDED020A30EEE1
:1054E000600A10EE107A38460DF0B4FC41EC1C0B4B
:1054F0001FED5C1BB0EE4C0AF0EE6C0A0BF09CF951
:10550000B0EE40DAF0EE60DA00F021FA30EE6E0A2A
:1055100010EE107A38460DF09DFC41EC1C0B1FED8F
:10552000671BB0EE4C0AF0EE6C0A0BF085F9B0EE9A
:1055300040FAF0EE60FA53EC1D2B51EC1F0B0CF00F
:10554000E9FE41EC1B0BB0EE4B0AF0EE6B0A0BF0E0
:10555000F3FFB0EE40AAF0EE60AA51EC1A0B0CF08B
:10556000A7FE0390F0EE490AB0EE680A00F02CFEA8
:1055700010EE107A38460DF06DFC41EC1D0BB0EECC
:105580004D0AF0EE6D0A00F0FDFCB0EE40BAF0EE10
:1055900060BA1FED820A30EE490A10EE101A084672
:1055A0000DF058FC41EC1C0B53EC1B2B0DF068FB71
:1055B00041EC1A0B0CF07CFE0EEE100A0020FDF7F9
:1055C00068FCAA38462810DA0020FDF762FCAA38E9
:1055D00000EE100AB8EEC01A79EE0E0A9DED010A2F
:1055E000B0EE608A01EE008A01E039EE0E8AF5EE37
:1055F000C08AF1EE10FA34DD012D0FD131460120C1
:105600009DED032AF0EE681AB0EE481AF0EE480A53
:1056100000EE104AB8EEC00A01F0E4FD7DB9314653
:1056200001209DED032AF0EE681A9DED161AF0EEAA
:10563000480A00EE104AB8EEC00A01F0D3FDB4EEFD
:10564000E98AF1EE10FA05D8012004B0BDEC108B08
:1056500007B0F0BDB4EEE98AF1EE10FA01DD0020EA
:10566000F3E7F5EEC08AF1EE10FA31D2012D0FD139
:105670003146A81E9DED032AF1EE681AB0EE481AD5
:10568000F0EE480A00EE104AB8EEC00A01F0AAFD9A
:1056900085B931464FF0FF309DED032AF1EE681ACF
:1056A0009DED161AF0EE480A00EE104AB8EEC00A58
:1056B00001F098FDB4EEE98AF1EE10FA01DB012069
:1056C000C3E7B4EEE98AF1EE10FA01D20020BCE79C
:1056D0000220BAE7DFED750A70EE200A9FED741A1A
:1056E000C0EE811ADFED730A71EEA00AFDEEE00A4A
:1056F00010EE900A704710B52DED108BF0EE408A39
:10570000B0EE608A18EE100A0DF0A4FB41EC1E0BFF
:10571000B0EE4E0AF0EE6E0A00F0CEFBB0EE40DACC
:10572000F0EE60DA9FED640B53EC102B51EC1D0B87
:105730000DF09AF841EC1B0B18EE100A0DF08AFBE5
:1057400041EC1F0BB0EE4F0AF0EE6F0A00F0D6FBF3
:10575000B0EE40DAF0EE60DAB0EE680AFFF7BAFFBA
:1057600004460DF01AF841EC1E0B53EC1D2B0DF006
:105770007BF841EC1C0B53EC1B2B0DF081FA41EC38
:105780001A0B9FED4F0B53EC102B0DF0A1F941ECD0
:10579000190B0CF0D3FFBDEC108B10BD10B52DED27
:1057A000028B044600F0D3F8F0EE400A00EE104AF7
:1057B000B8EEC00A30EEC00AB0EE408A00F005FA3A
:1057C000BDEC028B10BD70B52DED028B04460D466D
:1057D000CDB900F0D6F8B0EE408AF0EE480A00EEFF
:1057E000104AB8EEC00AFFF786FF3749086000F09C
:1057F000AEF83548D0ED000AF8EEE00A30EE600A67
:10580000324880ED000A012D04D1304890ED000AA5
:1058100000F0DBF9BDEC028B70BD10B52DED028BF5
:10582000B0EE408A9FED2A0A2A4880ED000AD0EDAA
:10583000000A78EE600AB0EE600A00F0CEF9BDEC26
:10584000028B10BDDFED1B0A30EE601ADFED170A88
:10585000DFED171A51EE810AFDEEE00A10EE900A14
:1058600070472DE9F04100BF00BF00BF00BF00BF7F
:1058700000F06DF8BDEEC00A10EE105A00F074F89A
:10588000BDEEC00A10EE106A13480068281A00EB3B
:105890008000470011480068301A00EB80004FEA92
:1058A000400838461CE00000CDCCCC3D9A995143CD
:1058B0008716893F00000B43CDCCCCCCCCAC5940F3
:1058C0000000000000F886409C000020A00000209E
:1058D0009ACDE345A40000203C3B0020643B00201F
:1058E00000F0A8F8404600F0ABF800240CE00A49AC
:1058F000601C51F8200041F824000849601C51F850
:10590000200041F82400641C092CF0DB02484562A9
:1059100002484662BDE8F0813C3B0020643B002029
:10592000FE4A10807047FD48008800B27047FC4A6C
:1059300010707047FA4800787047FA4A1070704744
:10594000F84800787047F84880ED000A7047F6483C
:1059500090ED000AF548D0ED000A30EE600A70477D
:10596000F34880ED000A7047F14890ED000AF148D5
:10597000D0ED000A30EE600A7047EF4880ED000A73
:105980007047ED4890ED000A7047EC4880ED000A42
:105990007047EA4890ED000A7047E94880ED000A38
:1059A0007047E74890ED000A7047E64880ED000A2E
:1059B0007047E44890ED000A7047E34880ED000A24
:1059C0007047E14890ED000A7047E04880ED000A1A
:1059D0007047DE4890ED000A7047DD4901EB800119
:1059E00081ED000A7047DA4901EB800191ED000A70
:1059F0007047D84A42F8210070470146D54850F810
:105A000021007047D44908707047D34890F90000CE
:105A10007047D24A42F8210070470146CF4850F8FB
:105A200021007047CE4880ED000A7047CC4890EDC9
:105A3000000A7047CB4908607047CA480068704741
:105A4000C94908607047C8480068704700EE100AEE
:105A5000B8EEC00AC54981ED000A7047C34890ED11
:105A6000000ABDEEC00A10EE100A7047C049086077
:105A70007047BF48008800B2704710B52DED048B09
:105A80000446A4F500600CF088FE41EC190B9FED74
:105A9000B90B53EC102B0CF0F9FC41EC180B0CF08B
:105AA0004DFEB6490860BDEC048B10BD10B52DED60
:105AB000048BB3480078A0B1B0490968C1F5006013
:105AC0000CF06BFE41EC190B9FEDAA0B53EC102B65
:105AD0000CF0DCFC41EC180B0CF030FEBDEC048B40
